{
  "_format": "hh-sol-artifact-1",
  "contractName": "MoneyPool",
  "sourceName": "contracts/MoneyPoolFactory.sol",
  "abi": [
    {
      "inputs": [
        {
          "internalType": "address",
          "name": "_creator",
          "type": "address"
        },
        {
          "internalType": "uint256",
          "name": "_poolAmount",
          "type": "uint256"
        },
        {
          "internalType": "uint256",
          "name": "_monthlyAmount",
          "type": "uint256"
        }
      ],
      "stateMutability": "nonpayable",
      "type": "constructor"
    },
    {
      "inputs": [],
      "name": "deposit",
      "outputs": [],
      "stateMutability": "payable",
      "type": "function"
    },
    {
      "inputs": [],
      "name": "duration",
      "outputs": [
        {
          "internalType": "uint256",
          "name": "",
          "type": "uint256"
        }
      ],
      "stateMutability": "view",
      "type": "function"
    },
    {
      "inputs": [],
      "name": "endDate",
      "outputs": [
        {
          "internalType": "uint256",
          "name": "",
          "type": "uint256"
        }
      ],
      "stateMutability": "view",
      "type": "function"
    },
    {
      "inputs": [],
      "name": "getBalance",
      "outputs": [
        {
          "internalType": "uint256",
          "name": "",
          "type": "uint256"
        }
      ],
      "stateMutability": "view",
      "type": "function"
    },
    {
      "inputs": [],
      "name": "getNumberOfMembers",
      "outputs": [
        {
          "internalType": "uint256",
          "name": "",
          "type": "uint256"
        }
      ],
      "stateMutability": "view",
      "type": "function"
    },
    {
      "inputs": [
        {
          "internalType": "address",
          "name": "_address",
          "type": "address"
        }
      ],
      "name": "getReceivalDate",
      "outputs": [
        {
          "internalType": "uint256",
          "name": "",
          "type": "uint256"
        }
      ],
      "stateMutability": "view",
      "type": "function"
    },
    {
      "inputs": [],
      "name": "getToReceive",
      "outputs": [
        {
          "internalType": "address",
          "name": "",
          "type": "address"
        }
      ],
      "stateMutability": "view",
      "type": "function"
    },
    {
      "inputs": [
        {
          "internalType": "address",
          "name": "_address",
          "type": "address"
        }
      ],
      "name": "getUserPayState",
      "outputs": [
        {
          "internalType": "bool",
          "name": "",
          "type": "bool"
        }
      ],
      "stateMutability": "view",
      "type": "function"
    },
    {
      "inputs": [
        {
          "internalType": "address",
          "name": "_address",
          "type": "address"
        }
      ],
      "name": "isJoined",
      "outputs": [
        {
          "internalType": "bool",
          "name": "",
          "type": "bool"
        }
      ],
      "stateMutability": "view",
      "type": "function"
    },
    {
      "inputs": [],
      "name": "join",
      "outputs": [],
      "stateMutability": "nonpayable",
      "type": "function"
    },
    {
      "inputs": [],
      "name": "maxUsersNumber",
      "outputs": [
        {
          "internalType": "uint256",
          "name": "",
          "type": "uint256"
        }
      ],
      "stateMutability": "view",
      "type": "function"
    },
    {
      "inputs": [
        {
          "internalType": "uint256",
          "name": "",
          "type": "uint256"
        }
      ],
      "name": "members",
      "outputs": [
        {
          "internalType": "address",
          "name": "",
          "type": "address"
        }
      ],
      "stateMutability": "view",
      "type": "function"
    },
    {
      "inputs": [],
      "name": "monthlyAmount",
      "outputs": [
        {
          "internalType": "uint256",
          "name": "",
          "type": "uint256"
        }
      ],
      "stateMutability": "view",
      "type": "function"
    },
    {
      "inputs": [],
      "name": "poolAmount",
      "outputs": [
        {
          "internalType": "uint256",
          "name": "",
          "type": "uint256"
        }
      ],
      "stateMutability": "view",
      "type": "function"
    },
    {
      "inputs": [],
      "name": "startDate",
      "outputs": [
        {
          "internalType": "uint256",
          "name": "",
          "type": "uint256"
        }
      ],
      "stateMutability": "view",
      "type": "function"
    },
    {
      "inputs": [],
      "name": "time",
      "outputs": [
        {
          "internalType": "uint256",
          "name": "",
          "type": "uint256"
        }
      ],
      "stateMutability": "view",
      "type": "function"
    },
    {
      "inputs": [
        {
          "internalType": "address",
          "name": "",
          "type": "address"
        }
      ],
      "name": "usersPayState",
      "outputs": [
        {
          "internalType": "bool",
          "name": "",
          "type": "bool"
        }
      ],
      "stateMutability": "view",
      "type": "function"
    },
    {
      "inputs": [
        {
          "internalType": "address",
          "name": "",
          "type": "address"
        }
      ],
      "name": "usersPriority",
      "outputs": [
        {
          "internalType": "uint256",
          "name": "",
          "type": "uint256"
        }
      ],
      "stateMutability": "view",
      "type": "function"
    },
    {
      "inputs": [
        {
          "internalType": "address",
          "name": "",
          "type": "address"
        }
      ],
      "name": "usersReceiveState",
      "outputs": [
        {
          "internalType": "bool",
          "name": "",
          "type": "bool"
        }
      ],
      "stateMutability": "view",
      "type": "function"
    },
    {
      "inputs": [],
      "name": "withdraw",
      "outputs": [],
      "stateMutability": "nonpayable",
      "type": "function"
    }
  ],
  "bytecode": "0x608060405242600b553480156200001557600080fd5b5060405162001c0138038062001c0183398181016040528101906200003b9190620005dc565b82600a60006101000a81548173ffffffffffffffffffffffffffffffffffffffff021916908373ffffffffffffffffffffffffffffffffffffffff1602179055508060008190555081600181905550808262000098919062000696565b600981905550603c806018601e8486620000b3919062000696565b620000bf9190620006ce565b620000cb9190620006ce565b620000d79190620006ce565b620000e39190620006ce565b600481905550620000f96200016560201b60201c565b42600660003373ffffffffffffffffffffffffffffffffffffffff1673ffffffffffffffffffffffffffffffffffffffff168152602001908152602001600020819055504260028190555060045460025462000156919062000719565b600381905550505050620008c5565b600060058054905003620002de576005600a60009054906101000a900473ffffffffffffffffffffffffffffffffffffffff169080600181540180825580915050600190039060005260206000200160009091909190916101000a81548173ffffffffffffffffffffffffffffffffffffffff021916908373ffffffffffffffffffffffffffffffffffffffff1602179055504260066000600a60009054906101000a900473ffffffffffffffffffffffffffffffffffffffff1673ffffffffffffffffffffffffffffffffffffffff1673ffffffffffffffffffffffffffffffffffffffff16815260200190815260200160002081905550600060076000600a60009054906101000a900473ffffffffffffffffffffffffffffffffffffffff1673ffffffffffffffffffffffffffffffffffffffff1673ffffffffffffffffffffffffffffffffffffffff16815260200190815260200160002060006101000a81548160ff0219169083151502179055506200047e565b600954600580549050106200032a576040517f08c379a00000000000000000000000000000000000000000000000000000000081526004016200032190620007b5565b60405180910390fd5b6200033b336200048060201b60201c565b156200037e576040517f08c379a0000000000000000000000000000000000000000000000000000000008152600401620003759062000827565b60405180910390fd5b6005339080600181540180825580915050600190039060005260206000200160009091909190916101000a81548173ffffffffffffffffffffffffffffffffffffffff021916908373ffffffffffffffffffffffffffffffffffffffff16021790555042600660003373ffffffffffffffffffffffffffffffffffffffff1673ffffffffffffffffffffffffffffffffffffffff168152602001908152602001600020819055506000600760003373ffffffffffffffffffffffffffffffffffffffff1673ffffffffffffffffffffffffffffffffffffffff16815260200190815260200160002060006101000a81548160ff0219169083151502179055505b565b600080600090505b6005805490508110156200052c578273ffffffffffffffffffffffffffffffffffffffff1660058281548110620004c457620004c362000849565b5b9060005260206000200160009054906101000a900473ffffffffffffffffffffffffffffffffffffffff1673ffffffffffffffffffffffffffffffffffffffff16036200051657600191505062000532565b8080620005239062000878565b91505062000488565b50600090505b919050565b600080fd5b600073ffffffffffffffffffffffffffffffffffffffff82169050919050565b600062000569826200053c565b9050919050565b6200057b816200055c565b81146200058757600080fd5b50565b6000815190506200059b8162000570565b92915050565b6000819050919050565b620005b681620005a1565b8114620005c257600080fd5b50565b600081519050620005d681620005ab565b92915050565b600080600060608486031215620005f857620005f762000537565b5b600062000608868287016200058a565b93505060206200061b86828701620005c5565b92505060406200062e86828701620005c5565b9150509250925092565b7f4e487b7100000000000000000000000000000000000000000000000000000000600052601260045260246000fd5b7f4e487b7100000000000000000000000000000000000000000000000000000000600052601160045260246000fd5b6000620006a382620005a1565b9150620006b083620005a1565b925082620006c357620006c262000638565b5b828204905092915050565b6000620006db82620005a1565b9150620006e883620005a1565b9250828202620006f881620005a1565b9150828204841483151762000712576200071162000667565b5b5092915050565b60006200072682620005a1565b91506200073383620005a1565b92508282019050808211156200074e576200074d62000667565b5b92915050565b600082825260208201905092915050565b7f506f6f6c2066756c6c0000000000000000000000000000000000000000000000600082015250565b60006200079d60098362000754565b9150620007aa8262000765565b602082019050919050565b60006020820190508181036000830152620007d0816200078e565b9050919050565b7f5573657220616c72656164792065786973747300000000000000000000000000600082015250565b60006200080f60138362000754565b91506200081c82620007d7565b602082019050919050565b60006020820190508181036000830152620008428162000800565b9050919050565b7f4e487b7100000000000000000000000000000000000000000000000000000000600052603260045260246000fd5b60006200088582620005a1565b91507fffffffffffffffffffffffffffffffffffffffffffffffffffffffffffffffff8203620008ba57620008b962000667565b5b600182019050919050565b61132c80620008d56000396000f3fe60806040526004361061011f5760003560e01c80636acda09c116100a0578063c24a0f8b11610064578063c24a0f8b146103c9578063d0e30db0146103f4578063dea2c6b0146103fe578063f96c38001461043b578063febf7cb1146104785761011f565b80636acda09c146103065780638b73a46b146103315780639738d5911461035c578063a693600b14610387578063b688a363146103b25761011f565b80633e46f537116100e75780633e46f537146101e75780635daf08ca146102245780635e6a43f5146102615780635f04856e1461029e5780636588439c146102db5761011f565b80630b97bc86146101245780630fb5a6b41461014f57806312065fe01461017a57806316ada547146101a55780633ccfd60b146101d0575b600080fd5b34801561013057600080fd5b506101396104b5565b6040516101469190610ebf565b60405180910390f35b34801561015b57600080fd5b506101646104bb565b6040516101719190610ebf565b60405180910390f35b34801561018657600080fd5b5061018f6104c1565b60405161019c9190610ebf565b60405180910390f35b3480156101b157600080fd5b506101ba6104c9565b6040516101c79190610ebf565b60405180910390f35b3480156101dc57600080fd5b506101e56104cf565b005b3480156101f357600080fd5b5061020e60048036038101906102099190610f3d565b61063e565b60405161021b9190610f85565b60405180910390f35b34801561023057600080fd5b5061024b60048036038101906102469190610fcc565b610694565b6040516102589190611008565b60405180910390f35b34801561026d57600080fd5b5061028860048036038101906102839190610f3d565b6106d3565b6040516102959190610f85565b60405180910390f35b3480156102aa57600080fd5b506102c560048036038101906102c09190610f3d565b610781565b6040516102d29190610ebf565b60405180910390f35b3480156102e757600080fd5b506102f0610799565b6040516102fd9190610ebf565b60405180910390f35b34801561031257600080fd5b5061031b61079f565b6040516103289190610ebf565b60405180910390f35b34801561033d57600080fd5b506103466107a5565b6040516103539190610ebf565b60405180910390f35b34801561036857600080fd5b506103716107b2565b60405161037e9190611008565b60405180910390f35b34801561039357600080fd5b5061039c6109bc565b6040516103a99190610ebf565b60405180910390f35b3480156103be57600080fd5b506103c76109c2565b005b3480156103d557600080fd5b506103de610ccd565b6040516103eb9190610ebf565b60405180910390f35b6103fc610cd3565b005b34801561040a57600080fd5b5061042560048036038101906104209190610f3d565b610e5f565b6040516104329190610f85565b60405180910390f35b34801561044757600080fd5b50610462600480360381019061045d9190610f3d565b610e7f565b60405161046f9190610ebf565b60405180910390f35b34801561048457600080fd5b5061049f600480360381019061049a9190610f3d565b610e86565b6040516104ac9190610f85565b60405180910390f35b60025481565b60045481565b600047905090565b600b5481565b60006104d96107b2565b90508073ffffffffffffffffffffffffffffffffffffffff166108fc6104fd6104c1565b9081150290604051600060405180830381858888f19350505050158015610528573d6000803e3d6000fd5b506001600760008373ffffffffffffffffffffffffffffffffffffffff1673ffffffffffffffffffffffffffffffffffffffff16815260200190815260200160002060006101000a81548160ff02191690831515021790555060005b60058054905081101561063a57600060086000600584815481106105ab576105aa611023565b5b9060005260206000200160009054906101000a900473ffffffffffffffffffffffffffffffffffffffff1673ffffffffffffffffffffffffffffffffffffffff1673ffffffffffffffffffffffffffffffffffffffff16815260200190815260200160002060006101000a81548160ff021916908315150217905550808061063290611081565b915050610584565b5050565b6000600860008373ffffffffffffffffffffffffffffffffffffffff1673ffffffffffffffffffffffffffffffffffffffff16815260200190815260200160002060009054906101000a900460ff169050919050565b600581815481106106a457600080fd5b906000526020600020016000915054906101000a900473ffffffffffffffffffffffffffffffffffffffff1681565b600080600090505b600580549050811015610776578273ffffffffffffffffffffffffffffffffffffffff166005828154811061071357610712611023565b5b9060005260206000200160009054906101000a900473ffffffffffffffffffffffffffffffffffffffff1673ffffffffffffffffffffffffffffffffffffffff160361076357600191505061077c565b808061076e90611081565b9150506106db565b50600090505b919050565b60066020528060005260406000206000915090505481565b60005481565b60095481565b6000600580549050905090565b60008060056000815481106107ca576107c9611023565b5b9060005260206000200160009054906101000a900473ffffffffffffffffffffffffffffffffffffffff16905060005b6005805490508110156109b457600660008373ffffffffffffffffffffffffffffffffffffffff1673ffffffffffffffffffffffffffffffffffffffff16815260200190815260200160002054600660006005848154811061085f5761085e611023565b5b9060005260206000200160009054906101000a900473ffffffffffffffffffffffffffffffffffffffff1673ffffffffffffffffffffffffffffffffffffffff1673ffffffffffffffffffffffffffffffffffffffff1681526020019081526020016000205411801561095a575060076000600583815481106108e5576108e4611023565b5b9060005260206000200160009054906101000a900473ffffffffffffffffffffffffffffffffffffffff1673ffffffffffffffffffffffffffffffffffffffff1673ffffffffffffffffffffffffffffffffffffffff16815260200190815260200160002060009054906101000a900460ff16155b156109a1576005818154811061097357610972611023565b5b9060005260206000200160009054906101000a900473ffffffffffffffffffffffffffffffffffffffff1691505b80806109ac90611081565b9150506107fa565b508091505090565b60015481565b600060058054905003610b39576005600a60009054906101000a900473ffffffffffffffffffffffffffffffffffffffff169080600181540180825580915050600190039060005260206000200160009091909190916101000a81548173ffffffffffffffffffffffffffffffffffffffff021916908373ffffffffffffffffffffffffffffffffffffffff1602179055504260066000600a60009054906101000a900473ffffffffffffffffffffffffffffffffffffffff1673ffffffffffffffffffffffffffffffffffffffff1673ffffffffffffffffffffffffffffffffffffffff16815260200190815260200160002081905550600060076000600a60009054906101000a900473ffffffffffffffffffffffffffffffffffffffff1673ffffffffffffffffffffffffffffffffffffffff1673ffffffffffffffffffffffffffffffffffffffff16815260200190815260200160002060006101000a81548160ff021916908315150217905550610ccb565b60095460058054905010610b82576040517f08c379a0000000000000000000000000000000000000000000000000000000008152600401610b7990611126565b60405180910390fd5b610b8b336106d3565b15610bcb576040517f08c379a0000000000000000000000000000000000000000000000000000000008152600401610bc290611192565b60405180910390fd5b6005339080600181540180825580915050600190039060005260206000200160009091909190916101000a81548173ffffffffffffffffffffffffffffffffffffffff021916908373ffffffffffffffffffffffffffffffffffffffff16021790555042600660003373ffffffffffffffffffffffffffffffffffffffff1673ffffffffffffffffffffffffffffffffffffffff168152602001908152602001600020819055506000600760003373ffffffffffffffffffffffffffffffffffffffff1673ffffffffffffffffffffffffffffffffffffffff16815260200190815260200160002060006101000a81548160ff0219169083151502179055505b565b60035481565b610cdc336106d3565b610d1b576040517f08c379a0000000000000000000000000000000000000000000000000000000008152600401610d12906111fe565b60405180910390fd5b600860003373ffffffffffffffffffffffffffffffffffffffff1673ffffffffffffffffffffffffffffffffffffffff16815260200190815260200160002060009054906101000a900460ff1615610da8576040517f08c379a0000000000000000000000000000000000000000000000000000000008152600401610d9f9061126a565b60405180910390fd5b6000543414610dec576040517f08c379a0000000000000000000000000000000000000000000000000000000008152600401610de3906112d6565b60405180910390fd5b6001600860003373ffffffffffffffffffffffffffffffffffffffff1673ffffffffffffffffffffffffffffffffffffffff16815260200190815260200160002060006101000a81548160ff021916908315150217905550600154610e4f6104c1565b03610e5d57610e5c6104cf565b5b565b60076020528060005260406000206000915054906101000a900460ff1681565b6000919050565b60086020528060005260406000206000915054906101000a900460ff1681565b6000819050919050565b610eb981610ea6565b82525050565b6000602082019050610ed46000830184610eb0565b92915050565b600080fd5b600073ffffffffffffffffffffffffffffffffffffffff82169050919050565b6000610f0a82610edf565b9050919050565b610f1a81610eff565b8114610f2557600080fd5b50565b600081359050610f3781610f11565b92915050565b600060208284031215610f5357610f52610eda565b5b6000610f6184828501610f28565b91505092915050565b60008115159050919050565b610f7f81610f6a565b82525050565b6000602082019050610f9a6000830184610f76565b92915050565b610fa981610ea6565b8114610fb457600080fd5b50565b600081359050610fc681610fa0565b92915050565b600060208284031215610fe257610fe1610eda565b5b6000610ff084828501610fb7565b91505092915050565b61100281610eff565b82525050565b600060208201905061101d6000830184610ff9565b92915050565b7f4e487b7100000000000000000000000000000000000000000000000000000000600052603260045260246000fd5b7f4e487b7100000000000000000000000000000000000000000000000000000000600052601160045260246000fd5b600061108c82610ea6565b91507fffffffffffffffffffffffffffffffffffffffffffffffffffffffffffffffff82036110be576110bd611052565b5b600182019050919050565b600082825260208201905092915050565b7f506f6f6c2066756c6c0000000000000000000000000000000000000000000000600082015250565b60006111106009836110c9565b915061111b826110da565b602082019050919050565b6000602082019050818103600083015261113f81611103565b9050919050565b7f5573657220616c72656164792065786973747300000000000000000000000000600082015250565b600061117c6013836110c9565b915061118782611146565b602082019050919050565b600060208201905081810360008301526111ab8161116f565b9050919050565b7f5573657220686173206e6f74206a6f696e65642074686520706f6f6c00000000600082015250565b60006111e8601c836110c9565b91506111f3826111b2565b602082019050919050565b60006020820190508181036000830152611217816111db565b9050919050565b7f5573657220616c72656164792070616964000000000000000000000000000000600082015250565b60006112546011836110c9565b915061125f8261121e565b602082019050919050565b6000602082019050818103600083015261128381611247565b9050919050565b7f496e76616c6964206465706f73697420616d6f756e7400000000000000000000600082015250565b60006112c06016836110c9565b91506112cb8261128a565b602082019050919050565b600060208201905081810360008301526112ef816112b3565b905091905056fea26469706673582212205c1a451a48f1ff3554e3c0e59cd5aa7013de0394be12a5f3f3838eac75e5677264736f6c63430008120033",
  "linkReferences": {},
  "deployedLinkReferences": {}
}