{
  "_format": "hh-sol-artifact-1",
  "contractName": "MoneyPool",
  "sourceName": "contracts/MoneyPoolFactory.sol",
  "abi": [
    {
      "inputs": [
        {
          "internalType": "uint256",
          "name": "_poolAmount",
          "type": "uint256"
        },
        {
          "internalType": "uint256",
          "name": "_monthlyAmount",
          "type": "uint256"
        }
      ],
      "stateMutability": "nonpayable",
      "type": "constructor"
    },
    {
      "inputs": [],
      "name": "deposit",
      "outputs": [],
      "stateMutability": "payable",
      "type": "function"
    },
    {
      "inputs": [],
      "name": "duration",
      "outputs": [
        {
          "internalType": "uint256",
          "name": "",
          "type": "uint256"
        }
      ],
      "stateMutability": "view",
      "type": "function"
    },
    {
      "inputs": [],
      "name": "getBalance",
      "outputs": [
        {
          "internalType": "uint256",
          "name": "",
          "type": "uint256"
        }
      ],
      "stateMutability": "view",
      "type": "function"
    },
    {
      "inputs": [],
      "name": "getNumberOfMembers",
      "outputs": [
        {
          "internalType": "uint256",
          "name": "",
          "type": "uint256"
        }
      ],
      "stateMutability": "view",
      "type": "function"
    },
    {
      "inputs": [],
      "name": "getToReceive",
      "outputs": [
        {
          "internalType": "address",
          "name": "",
          "type": "address"
        }
      ],
      "stateMutability": "view",
      "type": "function"
    },
    {
      "inputs": [],
      "name": "join",
      "outputs": [],
      "stateMutability": "nonpayable",
      "type": "function"
    },
    {
      "inputs": [],
      "name": "maxUsersNumber",
      "outputs": [
        {
          "internalType": "uint256",
          "name": "",
          "type": "uint256"
        }
      ],
      "stateMutability": "view",
      "type": "function"
    },
    {
      "inputs": [
        {
          "internalType": "uint256",
          "name": "",
          "type": "uint256"
        }
      ],
      "name": "members",
      "outputs": [
        {
          "internalType": "address",
          "name": "",
          "type": "address"
        }
      ],
      "stateMutability": "view",
      "type": "function"
    },
    {
      "inputs": [],
      "name": "monthlyAmount",
      "outputs": [
        {
          "internalType": "uint256",
          "name": "",
          "type": "uint256"
        }
      ],
      "stateMutability": "view",
      "type": "function"
    },
    {
      "inputs": [],
      "name": "poolAmount",
      "outputs": [
        {
          "internalType": "uint256",
          "name": "",
          "type": "uint256"
        }
      ],
      "stateMutability": "view",
      "type": "function"
    },
    {
      "inputs": [],
      "name": "time",
      "outputs": [
        {
          "internalType": "uint256",
          "name": "",
          "type": "uint256"
        }
      ],
      "stateMutability": "view",
      "type": "function"
    },
    {
      "inputs": [
        {
          "internalType": "address",
          "name": "",
          "type": "address"
        }
      ],
      "name": "usersPayState",
      "outputs": [
        {
          "internalType": "bool",
          "name": "",
          "type": "bool"
        }
      ],
      "stateMutability": "view",
      "type": "function"
    },
    {
      "inputs": [
        {
          "internalType": "address",
          "name": "",
          "type": "address"
        }
      ],
      "name": "usersPriority",
      "outputs": [
        {
          "internalType": "uint256",
          "name": "",
          "type": "uint256"
        }
      ],
      "stateMutability": "view",
      "type": "function"
    },
    {
      "inputs": [
        {
          "internalType": "address",
          "name": "",
          "type": "address"
        }
      ],
      "name": "usersReceiveState",
      "outputs": [
        {
          "internalType": "bool",
          "name": "",
          "type": "bool"
        }
      ],
      "stateMutability": "view",
      "type": "function"
    },
    {
      "inputs": [],
      "name": "withdraw",
      "outputs": [],
      "stateMutability": "nonpayable",
      "type": "function"
    }
  ],
  "bytecode": "0x608060405242600a553480156200001557600080fd5b506040516200123c3803806200123c83398181016040528101906200003b9190620000fd565b8060008190555081600181905550808262000057919062000173565b60098190555080826200006b919062000173565b60048190555042600660003373ffffffffffffffffffffffffffffffffffffffff1673ffffffffffffffffffffffffffffffffffffffff168152602001908152602001600020819055505050620001ab565b600080fd5b6000819050919050565b620000d781620000c2565b8114620000e357600080fd5b50565b600081519050620000f781620000cc565b92915050565b60008060408385031215620001175762000116620000bd565b5b60006200012785828601620000e6565b92505060206200013a85828601620000e6565b9150509250929050565b7f4e487b7100000000000000000000000000000000000000000000000000000000600052601260045260246000fd5b60006200018082620000c2565b91506200018d83620000c2565b925082620001a0576200019f62000144565b5b828204905092915050565b61108180620001bb6000396000f3fe6080604052600436106100e85760003560e01c80636acda09c1161008a578063b688a36311610059578063b688a363146102d6578063d0e30db0146102ed578063dea2c6b0146102f7578063febf7cb114610334576100e8565b80636acda09c1461022a5780638b73a46b146102555780639738d59114610280578063a693600b146102ab576100e8565b80633ccfd60b116100c65780633ccfd60b1461016e5780635daf08ca146101855780635f04856e146101c25780636588439c146101ff576100e8565b80630fb5a6b4146100ed57806312065fe01461011857806316ada54714610143575b600080fd5b3480156100f957600080fd5b50610102610371565b60405161010f9190610c14565b60405180910390f35b34801561012457600080fd5b5061012d610377565b60405161013a9190610c14565b60405180910390f35b34801561014f57600080fd5b5061015861037f565b6040516101659190610c14565b60405180910390f35b34801561017a57600080fd5b50610183610385565b005b34801561019157600080fd5b506101ac60048036038101906101a79190610c60565b6104f4565b6040516101b99190610cce565b60405180910390f35b3480156101ce57600080fd5b506101e960048036038101906101e49190610d15565b610533565b6040516101f69190610c14565b60405180910390f35b34801561020b57600080fd5b5061021461054b565b6040516102219190610c14565b60405180910390f35b34801561023657600080fd5b5061023f610551565b60405161024c9190610c14565b60405180910390f35b34801561026157600080fd5b5061026a610557565b6040516102779190610c14565b60405180910390f35b34801561028c57600080fd5b50610295610564565b6040516102a29190610cce565b60405180910390f35b3480156102b757600080fd5b506102c061076e565b6040516102cd9190610c14565b60405180910390f35b3480156102e257600080fd5b506102eb610774565b005b6102f561099b565b005b34801561030357600080fd5b5061031e60048036038101906103199190610d15565b610bbb565b60405161032b9190610d5d565b60405180910390f35b34801561034057600080fd5b5061035b60048036038101906103569190610d15565b610bdb565b6040516103689190610d5d565b60405180910390f35b60045481565b600047905090565b600a5481565b600061038f610564565b90508073ffffffffffffffffffffffffffffffffffffffff166108fc6103b3610377565b9081150290604051600060405180830381858888f193505050501580156103de573d6000803e3d6000fd5b506001600760008373ffffffffffffffffffffffffffffffffffffffff1673ffffffffffffffffffffffffffffffffffffffff16815260200190815260200160002060006101000a81548160ff02191690831515021790555060005b6005805490508110156104f0576000600860006005848154811061046157610460610d78565b5b9060005260206000200160009054906101000a900473ffffffffffffffffffffffffffffffffffffffff1673ffffffffffffffffffffffffffffffffffffffff1673ffffffffffffffffffffffffffffffffffffffff16815260200190815260200160002060006101000a81548160ff02191690831515021790555080806104e890610dd6565b91505061043a565b5050565b6005818154811061050457600080fd5b906000526020600020016000915054906101000a900473ffffffffffffffffffffffffffffffffffffffff1681565b60066020528060005260406000206000915090505481565b60005481565b60095481565b6000600580549050905090565b600080600560008154811061057c5761057b610d78565b5b9060005260206000200160009054906101000a900473ffffffffffffffffffffffffffffffffffffffff16905060005b60058054905081101561076657600660008373ffffffffffffffffffffffffffffffffffffffff1673ffffffffffffffffffffffffffffffffffffffff16815260200190815260200160002054600660006005848154811061061157610610610d78565b5b9060005260206000200160009054906101000a900473ffffffffffffffffffffffffffffffffffffffff1673ffffffffffffffffffffffffffffffffffffffff1673ffffffffffffffffffffffffffffffffffffffff1681526020019081526020016000205411801561070c5750600760006005838154811061069757610696610d78565b5b9060005260206000200160009054906101000a900473ffffffffffffffffffffffffffffffffffffffff1673ffffffffffffffffffffffffffffffffffffffff1673ffffffffffffffffffffffffffffffffffffffff16815260200190815260200160002060009054906101000a900460ff16155b15610753576005818154811061072557610724610d78565b5b9060005260206000200160009054906101000a900473ffffffffffffffffffffffffffffffffffffffff1691505b808061075e90610dd6565b9150506105ac565b508091505090565b60015481565b600954600580549050106107bd576040517f08c379a00000000000000000000000000000000000000000000000000000000081526004016107b490610e7b565b60405180910390fd5b6000805b600580549050811015610857573373ffffffffffffffffffffffffffffffffffffffff16600582815481106107f9576107f8610d78565b5b9060005260206000200160009054906101000a900473ffffffffffffffffffffffffffffffffffffffff1673ffffffffffffffffffffffffffffffffffffffff160361084457600191505b808061084f90610dd6565b9150506107c1565b508015610899576040517f08c379a000000000000000000000000000000000000000000000000000000000815260040161089090610ee7565b60405180910390fd5b6005339080600181540180825580915050600190039060005260206000200160009091909190916101000a81548173ffffffffffffffffffffffffffffffffffffffff021916908373ffffffffffffffffffffffffffffffffffffffff16021790555042600660003373ffffffffffffffffffffffffffffffffffffffff1673ffffffffffffffffffffffffffffffffffffffff168152602001908152602001600020819055506000600760003373ffffffffffffffffffffffffffffffffffffffff1673ffffffffffffffffffffffffffffffffffffffff16815260200190815260200160002060006101000a81548160ff02191690831515021790555050565b6000805b600580549050811015610a35573373ffffffffffffffffffffffffffffffffffffffff16600582815481106109d7576109d6610d78565b5b9060005260206000200160009054906101000a900473ffffffffffffffffffffffffffffffffffffffff1673ffffffffffffffffffffffffffffffffffffffff1603610a2257600191505b8080610a2d90610dd6565b91505061099f565b5080610a76576040517f08c379a0000000000000000000000000000000000000000000000000000000008152600401610a6d90610f53565b60405180910390fd5b600860003373ffffffffffffffffffffffffffffffffffffffff1673ffffffffffffffffffffffffffffffffffffffff16815260200190815260200160002060009054906101000a900460ff1615610b03576040517f08c379a0000000000000000000000000000000000000000000000000000000008152600401610afa90610fbf565b60405180910390fd5b6000543414610b47576040517f08c379a0000000000000000000000000000000000000000000000000000000008152600401610b3e9061102b565b60405180910390fd5b6001600860003373ffffffffffffffffffffffffffffffffffffffff1673ffffffffffffffffffffffffffffffffffffffff16815260200190815260200160002060006101000a81548160ff021916908315150217905550600154610baa610377565b03610bb857610bb7610385565b5b50565b60076020528060005260406000206000915054906101000a900460ff1681565b60086020528060005260406000206000915054906101000a900460ff1681565b6000819050919050565b610c0e81610bfb565b82525050565b6000602082019050610c296000830184610c05565b92915050565b600080fd5b610c3d81610bfb565b8114610c4857600080fd5b50565b600081359050610c5a81610c34565b92915050565b600060208284031215610c7657610c75610c2f565b5b6000610c8484828501610c4b565b91505092915050565b600073ffffffffffffffffffffffffffffffffffffffff82169050919050565b6000610cb882610c8d565b9050919050565b610cc881610cad565b82525050565b6000602082019050610ce36000830184610cbf565b92915050565b610cf281610cad565b8114610cfd57600080fd5b50565b600081359050610d0f81610ce9565b92915050565b600060208284031215610d2b57610d2a610c2f565b5b6000610d3984828501610d00565b91505092915050565b60008115159050919050565b610d5781610d42565b82525050565b6000602082019050610d726000830184610d4e565b92915050565b7f4e487b7100000000000000000000000000000000000000000000000000000000600052603260045260246000fd5b7f4e487b7100000000000000000000000000000000000000000000000000000000600052601160045260246000fd5b6000610de182610bfb565b91507fffffffffffffffffffffffffffffffffffffffffffffffffffffffffffffffff8203610e1357610e12610da7565b5b600182019050919050565b600082825260208201905092915050565b7f506f6f6c2066756c6c0000000000000000000000000000000000000000000000600082015250565b6000610e65600983610e1e565b9150610e7082610e2f565b602082019050919050565b60006020820190508181036000830152610e9481610e58565b9050919050565b7f5573657220616c72656164792065786973747300000000000000000000000000600082015250565b6000610ed1601383610e1e565b9150610edc82610e9b565b602082019050919050565b60006020820190508181036000830152610f0081610ec4565b9050919050565b7f5573657220686173206e6f74206a6f696e65642074686520706f6f6c00000000600082015250565b6000610f3d601c83610e1e565b9150610f4882610f07565b602082019050919050565b60006020820190508181036000830152610f6c81610f30565b9050919050565b7f5573657220616c72656164792070616964000000000000000000000000000000600082015250565b6000610fa9601183610e1e565b9150610fb482610f73565b602082019050919050565b60006020820190508181036000830152610fd881610f9c565b9050919050565b7f496e76616c6964206465706f73697420616d6f756e7400000000000000000000600082015250565b6000611015601683610e1e565b915061102082610fdf565b602082019050919050565b6000602082019050818103600083015261104481611008565b905091905056fea2646970667358221220ea1e7fb172565045f031b0558b79f99c261990da58d1eebea39335bbe8e3586264736f6c63430008120033",
  "linkReferences": {},
  "deployedLinkReferences": {}
}