{
  "_format": "hh-sol-artifact-1",
  "contractName": "MoneyPoolFactory",
  "sourceName": "contracts/MoneyPoolFactory.sol",
  "abi": [
    {
      "inputs": [
        {
          "internalType": "address",
          "name": "_creator",
          "type": "address"
        },
        {
          "internalType": "uint256",
          "name": "_poolTotal",
          "type": "uint256"
        },
        {
          "internalType": "uint256",
          "name": "_monthlyAmount",
          "type": "uint256"
        }
      ],
      "name": "createMoneyPool",
      "outputs": [],
      "stateMutability": "nonpayable",
      "type": "function"
    },
    {
      "inputs": [],
      "name": "getAllMoneyPools",
      "outputs": [
        {
          "internalType": "contract MoneyPool[]",
          "name": "coll",
          "type": "address[]"
        }
      ],
      "stateMutability": "view",
      "type": "function"
    },
    {
      "inputs": [],
      "name": "getNumberOfMoneyPools",
      "outputs": [
        {
          "internalType": "uint256",
          "name": "",
          "type": "uint256"
        }
      ],
      "stateMutability": "view",
      "type": "function"
    },
    {
      "inputs": [
        {
          "internalType": "address",
          "name": "_user",
          "type": "address"
        }
      ],
      "name": "getUserMoneyPools",
      "outputs": [
        {
          "internalType": "contract MoneyPool[]",
          "name": "coll",
          "type": "address[]"
        }
      ],
      "stateMutability": "view",
      "type": "function"
    },
    {
      "inputs": [
        {
          "internalType": "uint256",
          "name": "",
          "type": "uint256"
        }
      ],
      "name": "moneyPools",
      "outputs": [
        {
          "internalType": "contract MoneyPool",
          "name": "",
          "type": "address"
        }
      ],
      "stateMutability": "view",
      "type": "function"
    },
    {
      "inputs": [
        {
          "internalType": "address",
          "name": "",
          "type": "address"
        },
        {
          "internalType": "uint256",
          "name": "",
          "type": "uint256"
        }
      ],
      "name": "userMoneyPools",
      "outputs": [
        {
          "internalType": "contract MoneyPool",
          "name": "",
          "type": "address"
        }
      ],
      "stateMutability": "view",
      "type": "function"
    }
  ],
  "bytecode": "0x608060405234801561001057600080fd5b5061267f806100206000396000f3fe60806040523480156200001157600080fd5b50600436106200006a5760003560e01c80632002054a146200006f578063450c9b4a14620000915780637ac83fb514620000c75780638718f72e14620000e7578063dac4192b1462000109578063e5f587b8146200013f575b600080fd5b6200007962000175565b6040516200008891906200064a565b60405180910390f35b620000af6004803603810190620000a99190620006ae565b62000205565b604051620000be9190620006f1565b60405180910390f35b620000e56004803603810190620000df919062000753565b62000245565b005b620000f16200038e565b604051620001009190620007c0565b60405180910390f35b620001276004803603810190620001219190620007dd565b620003d7565b604051620001369190620006f1565b60405180910390f35b6200015d600480360381019062000157919062000824565b62000426565b6040516200016c91906200064a565b60405180910390f35b60606001805480602002602001604051908101604052809291908181526020018280548015620001fb57602002820191906000526020600020905b8160009054906101000a900473ffffffffffffffffffffffffffffffffffffffff1673ffffffffffffffffffffffffffffffffffffffff1681526020019060010190808311620001b0575b5050505050905090565b600181815481106200021657600080fd5b906000526020600020016000915054906101000a900473ffffffffffffffffffffffffffffffffffffffff1681565b60008383836040516200025890620004f4565b620002669392919062000867565b604051809103906000f08015801562000283573d6000803e3d6000fd5b5090506000803373ffffffffffffffffffffffffffffffffffffffff1673ffffffffffffffffffffffffffffffffffffffff168152602001908152602001600020819080600181540180825580915050600190039060005260206000200160009091909190916101000a81548173ffffffffffffffffffffffffffffffffffffffff021916908373ffffffffffffffffffffffffffffffffffffffff1602179055506001819080600181540180825580915050600190039060005260206000200160009091909190916101000a81548173ffffffffffffffffffffffffffffffffffffffff021916908373ffffffffffffffffffffffffffffffffffffffff16021790555050505050565b60008060003373ffffffffffffffffffffffffffffffffffffffff1673ffffffffffffffffffffffffffffffffffffffff16815260200190815260200160002080549050905090565b60006020528160005260406000208181548110620003f457600080fd5b906000526020600020016000915091509054906101000a900473ffffffffffffffffffffffffffffffffffffffff1681565b60606000808373ffffffffffffffffffffffffffffffffffffffff1673ffffffffffffffffffffffffffffffffffffffff168152602001908152602001600020805480602002602001604051908101604052809291908181526020018280548015620004e857602002820191906000526020600020905b8160009054906101000a900473ffffffffffffffffffffffffffffffffffffffff1673ffffffffffffffffffffffffffffffffffffffff16815260200190600101908083116200049d575b50505050509050919050565b611da580620008a583390190565b600081519050919050565b600082825260208201905092915050565b6000819050602082019050919050565b600073ffffffffffffffffffffffffffffffffffffffff82169050919050565b6000819050919050565b600062000579620005736200056d846200052e565b6200054e565b6200052e565b9050919050565b60006200058d8262000558565b9050919050565b6000620005a18262000580565b9050919050565b620005b38162000594565b82525050565b6000620005c78383620005a8565b60208301905092915050565b6000602082019050919050565b6000620005ed8262000502565b620005f981856200050d565b935062000606836200051e565b8060005b838110156200063d578151620006218882620005b9565b97506200062e83620005d3565b9250506001810190506200060a565b5085935050505092915050565b60006020820190508181036000830152620006668184620005e0565b905092915050565b600080fd5b6000819050919050565b620006888162000673565b81146200069457600080fd5b50565b600081359050620006a8816200067d565b92915050565b600060208284031215620006c757620006c66200066e565b5b6000620006d78482850162000697565b91505092915050565b620006eb8162000594565b82525050565b6000602082019050620007086000830184620006e0565b92915050565b60006200071b826200052e565b9050919050565b6200072d816200070e565b81146200073957600080fd5b50565b6000813590506200074d8162000722565b92915050565b6000806000606084860312156200076f576200076e6200066e565b5b60006200077f868287016200073c565b9350506020620007928682870162000697565b9250506040620007a58682870162000697565b9150509250925092565b620007ba8162000673565b82525050565b6000602082019050620007d76000830184620007af565b92915050565b60008060408385031215620007f757620007f66200066e565b5b600062000807858286016200073c565b92505060206200081a8582860162000697565b9150509250929050565b6000602082840312156200083d576200083c6200066e565b5b60006200084d848285016200073c565b91505092915050565b62000861816200070e565b82525050565b60006060820190506200087e600083018662000856565b6200088d6020830185620007af565b6200089c6040830184620007af565b94935050505056fe608060405242600c553480156200001557600080fd5b5060405162001da538038062001da583398181016040528101906200003b9190620005dc565b8060008190555081600181905550808262000057919062000696565b600981905550603c806018601e848662000072919062000696565b6200007e9190620006ce565b6200008a9190620006ce565b620000969190620006ce565b620000a29190620006ce565b60048190555082600a60006101000a81548173ffffffffffffffffffffffffffffffffffffffff021916908373ffffffffffffffffffffffffffffffffffffffff160217905550620000f96200016560201b60201c565b42600660003373ffffffffffffffffffffffffffffffffffffffff1673ffffffffffffffffffffffffffffffffffffffff168152602001908152602001600020819055504260028190555060045460025462000156919062000719565b600381905550505050620008c5565b600060058054905003620002de576005600a60009054906101000a900473ffffffffffffffffffffffffffffffffffffffff169080600181540180825580915050600190039060005260206000200160009091909190916101000a81548173ffffffffffffffffffffffffffffffffffffffff021916908373ffffffffffffffffffffffffffffffffffffffff1602179055504260066000600a60009054906101000a900473ffffffffffffffffffffffffffffffffffffffff1673ffffffffffffffffffffffffffffffffffffffff1673ffffffffffffffffffffffffffffffffffffffff16815260200190815260200160002081905550600060076000600a60009054906101000a900473ffffffffffffffffffffffffffffffffffffffff1673ffffffffffffffffffffffffffffffffffffffff1673ffffffffffffffffffffffffffffffffffffffff16815260200190815260200160002060006101000a81548160ff0219169083151502179055506200047e565b600954600580549050106200032a576040517f08c379a00000000000000000000000000000000000000000000000000000000081526004016200032190620007b5565b60405180910390fd5b6200033b336200048060201b60201c565b156200037e576040517f08c379a0000000000000000000000000000000000000000000000000000000008152600401620003759062000827565b60405180910390fd5b6005339080600181540180825580915050600190039060005260206000200160009091909190916101000a81548173ffffffffffffffffffffffffffffffffffffffff021916908373ffffffffffffffffffffffffffffffffffffffff16021790555042600660003373ffffffffffffffffffffffffffffffffffffffff1673ffffffffffffffffffffffffffffffffffffffff168152602001908152602001600020819055506000600760003373ffffffffffffffffffffffffffffffffffffffff1673ffffffffffffffffffffffffffffffffffffffff16815260200190815260200160002060006101000a81548160ff0219169083151502179055505b565b600080600090505b6005805490508110156200052c578273ffffffffffffffffffffffffffffffffffffffff1660058281548110620004c457620004c362000849565b5b9060005260206000200160009054906101000a900473ffffffffffffffffffffffffffffffffffffffff1673ffffffffffffffffffffffffffffffffffffffff16036200051657600191505062000532565b8080620005239062000878565b91505062000488565b50600090505b919050565b600080fd5b600073ffffffffffffffffffffffffffffffffffffffff82169050919050565b600062000569826200053c565b9050919050565b6200057b816200055c565b81146200058757600080fd5b50565b6000815190506200059b8162000570565b92915050565b6000819050919050565b620005b681620005a1565b8114620005c257600080fd5b50565b600081519050620005d681620005ab565b92915050565b600080600060608486031215620005f857620005f762000537565b5b600062000608868287016200058a565b93505060206200061b86828701620005c5565b92505060406200062e86828701620005c5565b9150509250925092565b7f4e487b7100000000000000000000000000000000000000000000000000000000600052601260045260246000fd5b7f4e487b7100000000000000000000000000000000000000000000000000000000600052601160045260246000fd5b6000620006a382620005a1565b9150620006b083620005a1565b925082620006c357620006c262000638565b5b828204905092915050565b6000620006db82620005a1565b9150620006e883620005a1565b9250828202620006f881620005a1565b9150828204841483151762000712576200071162000667565b5b5092915050565b60006200072682620005a1565b91506200073383620005a1565b92508282019050808211156200074e576200074d62000667565b5b92915050565b600082825260208201905092915050565b7f506f6f6c2066756c6c0000000000000000000000000000000000000000000000600082015250565b60006200079d60098362000754565b9150620007aa8262000765565b602082019050919050565b60006020820190508181036000830152620007d0816200078e565b9050919050565b7f5573657220616c72656164792065786973747300000000000000000000000000600082015250565b60006200080f60138362000754565b91506200081c82620007d7565b602082019050919050565b60006020820190508181036000830152620008428162000800565b9050919050565b7f4e487b7100000000000000000000000000000000000000000000000000000000600052603260045260246000fd5b60006200088582620005a1565b91507fffffffffffffffffffffffffffffffffffffffffffffffffffffffffffffffff8203620008ba57620008b962000667565b5b600182019050919050565b6114d080620008d56000396000f3fe60806040526004361061012a5760003560e01c80636acda09c116100ab578063b688a3631161006f578063b688a363146103e8578063c24a0f8b146103ff578063d0e30db01461042a578063dea2c6b014610434578063f96c380014610471578063febf7cb1146104ae5761012a565b80636acda09c146103115780638b73a46b1461033c5780639738d591146103675780639eab525314610392578063a693600b146103bd5761012a565b80633e46f537116100f25780633e46f537146101f25780635daf08ca1461022f5780635e6a43f51461026c5780635f04856e146102a95780636588439c146102e65761012a565b80630b97bc861461012f5780630fb5a6b41461015a57806312065fe01461018557806316ada547146101b05780633ccfd60b146101db575b600080fd5b34801561013b57600080fd5b506101446104eb565b6040516101519190610f83565b60405180910390f35b34801561016657600080fd5b5061016f6104f1565b60405161017c9190610f83565b60405180910390f35b34801561019157600080fd5b5061019a6104f7565b6040516101a79190610f83565b60405180910390f35b3480156101bc57600080fd5b506101c56104ff565b6040516101d29190610f83565b60405180910390f35b3480156101e757600080fd5b506101f0610505565b005b3480156101fe57600080fd5b5061021960048036038101906102149190611001565b610674565b6040516102269190611049565b60405180910390f35b34801561023b57600080fd5b5061025660048036038101906102519190611090565b6106ca565b60405161026391906110cc565b60405180910390f35b34801561027857600080fd5b50610293600480360381019061028e9190611001565b610709565b6040516102a09190611049565b60405180910390f35b3480156102b557600080fd5b506102d060048036038101906102cb9190611001565b6107b7565b6040516102dd9190610f83565b60405180910390f35b3480156102f257600080fd5b506102fb6107cf565b6040516103089190610f83565b60405180910390f35b34801561031d57600080fd5b506103266107d5565b6040516103339190610f83565b60405180910390f35b34801561034857600080fd5b506103516107db565b60405161035e9190610f83565b60405180910390f35b34801561037357600080fd5b5061037c6107e8565b60405161038991906110cc565b60405180910390f35b34801561039e57600080fd5b506103a76109f2565b6040516103b491906111a5565b60405180910390f35b3480156103c957600080fd5b506103d2610a80565b6040516103df9190610f83565b60405180910390f35b3480156103f457600080fd5b506103fd610a86565b005b34801561040b57600080fd5b50610414610d91565b6040516104219190610f83565b60405180910390f35b610432610d97565b005b34801561044057600080fd5b5061045b60048036038101906104569190611001565b610f23565b6040516104689190611049565b60405180910390f35b34801561047d57600080fd5b5061049860048036038101906104939190611001565b610f43565b6040516104a59190610f83565b60405180910390f35b3480156104ba57600080fd5b506104d560048036038101906104d09190611001565b610f4a565b6040516104e29190611049565b60405180910390f35b60025481565b60045481565b600047905090565b600c5481565b600061050f6107e8565b90508073ffffffffffffffffffffffffffffffffffffffff166108fc6105336104f7565b9081150290604051600060405180830381858888f1935050505015801561055e573d6000803e3d6000fd5b506001600760008373ffffffffffffffffffffffffffffffffffffffff1673ffffffffffffffffffffffffffffffffffffffff16815260200190815260200160002060006101000a81548160ff02191690831515021790555060005b60058054905081101561067057600060086000600584815481106105e1576105e06111c7565b5b9060005260206000200160009054906101000a900473ffffffffffffffffffffffffffffffffffffffff1673ffffffffffffffffffffffffffffffffffffffff1673ffffffffffffffffffffffffffffffffffffffff16815260200190815260200160002060006101000a81548160ff021916908315150217905550808061066890611225565b9150506105ba565b5050565b6000600860008373ffffffffffffffffffffffffffffffffffffffff1673ffffffffffffffffffffffffffffffffffffffff16815260200190815260200160002060009054906101000a900460ff169050919050565b600581815481106106da57600080fd5b906000526020600020016000915054906101000a900473ffffffffffffffffffffffffffffffffffffffff1681565b600080600090505b6005805490508110156107ac578273ffffffffffffffffffffffffffffffffffffffff1660058281548110610749576107486111c7565b5b9060005260206000200160009054906101000a900473ffffffffffffffffffffffffffffffffffffffff1673ffffffffffffffffffffffffffffffffffffffff16036107995760019150506107b2565b80806107a490611225565b915050610711565b50600090505b919050565b60066020528060005260406000206000915090505481565b60005481565b60095481565b6000600580549050905090565b6000806005600081548110610800576107ff6111c7565b5b9060005260206000200160009054906101000a900473ffffffffffffffffffffffffffffffffffffffff16905060005b6005805490508110156109ea57600660008373ffffffffffffffffffffffffffffffffffffffff1673ffffffffffffffffffffffffffffffffffffffff168152602001908152602001600020546006600060058481548110610895576108946111c7565b5b9060005260206000200160009054906101000a900473ffffffffffffffffffffffffffffffffffffffff1673ffffffffffffffffffffffffffffffffffffffff1673ffffffffffffffffffffffffffffffffffffffff168152602001908152602001600020541180156109905750600760006005838154811061091b5761091a6111c7565b5b9060005260206000200160009054906101000a900473ffffffffffffffffffffffffffffffffffffffff1673ffffffffffffffffffffffffffffffffffffffff1673ffffffffffffffffffffffffffffffffffffffff16815260200190815260200160002060009054906101000a900460ff16155b156109d757600581815481106109a9576109a86111c7565b5b9060005260206000200160009054906101000a900473ffffffffffffffffffffffffffffffffffffffff1691505b80806109e290611225565b915050610830565b508091505090565b60606005805480602002602001604051908101604052809291908181526020018280548015610a7657602002820191906000526020600020905b8160009054906101000a900473ffffffffffffffffffffffffffffffffffffffff1673ffffffffffffffffffffffffffffffffffffffff1681526020019060010190808311610a2c575b5050505050905090565b60015481565b600060058054905003610bfd576005600a60009054906101000a900473ffffffffffffffffffffffffffffffffffffffff169080600181540180825580915050600190039060005260206000200160009091909190916101000a81548173ffffffffffffffffffffffffffffffffffffffff021916908373ffffffffffffffffffffffffffffffffffffffff1602179055504260066000600a60009054906101000a900473ffffffffffffffffffffffffffffffffffffffff1673ffffffffffffffffffffffffffffffffffffffff1673ffffffffffffffffffffffffffffffffffffffff16815260200190815260200160002081905550600060076000600a60009054906101000a900473ffffffffffffffffffffffffffffffffffffffff1673ffffffffffffffffffffffffffffffffffffffff1673ffffffffffffffffffffffffffffffffffffffff16815260200190815260200160002060006101000a81548160ff021916908315150217905550610d8f565b60095460058054905010610c46576040517f08c379a0000000000000000000000000000000000000000000000000000000008152600401610c3d906112ca565b60405180910390fd5b610c4f33610709565b15610c8f576040517f08c379a0000000000000000000000000000000000000000000000000000000008152600401610c8690611336565b60405180910390fd5b6005339080600181540180825580915050600190039060005260206000200160009091909190916101000a81548173ffffffffffffffffffffffffffffffffffffffff021916908373ffffffffffffffffffffffffffffffffffffffff16021790555042600660003373ffffffffffffffffffffffffffffffffffffffff1673ffffffffffffffffffffffffffffffffffffffff168152602001908152602001600020819055506000600760003373ffffffffffffffffffffffffffffffffffffffff1673ffffffffffffffffffffffffffffffffffffffff16815260200190815260200160002060006101000a81548160ff0219169083151502179055505b565b60035481565b610da033610709565b610ddf576040517f08c379a0000000000000000000000000000000000000000000000000000000008152600401610dd6906113a2565b60405180910390fd5b600860003373ffffffffffffffffffffffffffffffffffffffff1673ffffffffffffffffffffffffffffffffffffffff16815260200190815260200160002060009054906101000a900460ff1615610e6c576040517f08c379a0000000000000000000000000000000000000000000000000000000008152600401610e639061140e565b60405180910390fd5b6000543414610eb0576040517f08c379a0000000000000000000000000000000000000000000000000000000008152600401610ea79061147a565b60405180910390fd5b6001600860003373ffffffffffffffffffffffffffffffffffffffff1673ffffffffffffffffffffffffffffffffffffffff16815260200190815260200160002060006101000a81548160ff021916908315150217905550600154610f136104f7565b03610f2157610f20610505565b5b565b60076020528060005260406000206000915054906101000a900460ff1681565b6000919050565b60086020528060005260406000206000915054906101000a900460ff1681565b6000819050919050565b610f7d81610f6a565b82525050565b6000602082019050610f986000830184610f74565b92915050565b600080fd5b600073ffffffffffffffffffffffffffffffffffffffff82169050919050565b6000610fce82610fa3565b9050919050565b610fde81610fc3565b8114610fe957600080fd5b50565b600081359050610ffb81610fd5565b92915050565b60006020828403121561101757611016610f9e565b5b600061102584828501610fec565b91505092915050565b60008115159050919050565b6110438161102e565b82525050565b600060208201905061105e600083018461103a565b92915050565b61106d81610f6a565b811461107857600080fd5b50565b60008135905061108a81611064565b92915050565b6000602082840312156110a6576110a5610f9e565b5b60006110b48482850161107b565b91505092915050565b6110c681610fc3565b82525050565b60006020820190506110e160008301846110bd565b92915050565b600081519050919050565b600082825260208201905092915050565b6000819050602082019050919050565b61111c81610fc3565b82525050565b600061112e8383611113565b60208301905092915050565b6000602082019050919050565b6000611152826110e7565b61115c81856110f2565b935061116783611103565b8060005b8381101561119857815161117f8882611122565b975061118a8361113a565b92505060018101905061116b565b5085935050505092915050565b600060208201905081810360008301526111bf8184611147565b905092915050565b7f4e487b7100000000000000000000000000000000000000000000000000000000600052603260045260246000fd5b7f4e487b7100000000000000000000000000000000000000000000000000000000600052601160045260246000fd5b600061123082610f6a565b91507fffffffffffffffffffffffffffffffffffffffffffffffffffffffffffffffff8203611262576112616111f6565b5b600182019050919050565b600082825260208201905092915050565b7f506f6f6c2066756c6c0000000000000000000000000000000000000000000000600082015250565b60006112b460098361126d565b91506112bf8261127e565b602082019050919050565b600060208201905081810360008301526112e3816112a7565b9050919050565b7f5573657220616c72656164792065786973747300000000000000000000000000600082015250565b600061132060138361126d565b915061132b826112ea565b602082019050919050565b6000602082019050818103600083015261134f81611313565b9050919050565b7f5573657220686173206e6f74206a6f696e65642074686520706f6f6c00000000600082015250565b600061138c601c8361126d565b915061139782611356565b602082019050919050565b600060208201905081810360008301526113bb8161137f565b9050919050565b7f5573657220616c72656164792070616964000000000000000000000000000000600082015250565b60006113f860118361126d565b9150611403826113c2565b602082019050919050565b60006020820190508181036000830152611427816113eb565b9050919050565b7f496e76616c6964206465706f73697420616d6f756e7400000000000000000000600082015250565b600061146460168361126d565b915061146f8261142e565b602082019050919050565b6000602082019050818103600083015261149381611457565b905091905056fea2646970667358221220d8844cc667fe76ff34758752a516f331636be3529e5cff5e460c44f41d5d057664736f6c63430008120033a2646970667358221220514de8246f3798c7a43b30fe2bb8c0e6345ae10c7cd6fa533cc352e99ad3212864736f6c63430008120033",
  "linkReferences": {},
  "deployedLinkReferences": {}
}